:020000040800F2
:10000000C05A00203D2200086D0700086F07000855
:1000100073070008770700087B070008000000004E
:100020000000000000000000000000007F07000842
:100030008107000800000000D5650008A9410008FC
:1000400057220008572200085722000857220008AC
:10005000572200085722000857220008572200089C
:10006000572200085722000857220008572200088C
:10007000572200085722000857220008572200087C
:10008000572200085722000857220008572200086C
:10009000572200085722000857220008572200085C
:1000A000572200085722000857220008572200084C
:1000B000572200085722000857220008572200083C
:1000C000572200085722000857220008572200082C
:1000D00057220008D144000815450008572200089F
:1000E000572200085722000857220008572200080C
:1000F00057220008572200085722000857220008FC
:1001000057220008572200085722000857220008EB
:1001100057220008572200085722000857220008DB
:1001200057220008572200085722000857220008CB
:1001300057220008572200085722000857220008BB
:1001400057220008572200085722000857220008AB
:10015000572200085722000857220008572200089B
:10016000572200085722000857220008572200088B
:10017000572200085722000857220008572200087B
:10018000572200085722000800F002F800F06FF82C
:100190000AA090E8000C82448344AAF10107DA45E2
:1001A00001D100F064F8AFF2090EBAE80F0013F0C5
:1001B000010F18BFFB1A43F00103184740970000D6
:1001C000609700000A444FF0000C10F8013B13F058
:1001D000070408BF10F8014B1D1108BF10F8015BA0
:1001E000641E05D010F8016B641E01F8016BF9D193
:1001F00013F0080F1EBF10F8014BAD1C0C1B09D1EA
:100200006D1E58BF01F801CBFAD505E014F8016B5B
:1002100001F8016B6D1EF9D59142D6D370470000ED
:100220000023002400250026103A28BF78C1FBD8FF
:10023000520728BF30C148BF0B607047662909F0DC
:10024000A481642906F06283732906F0A686002043
:1002500070471FB509F08FF906F0B6FE04000020C4
:10026000002108F025FBE0601FBD10B510BD06F0B1
:10027000AFFF1146FFF7EDFF00F0B7F906F0CDFF35
:1002800003B4FFF7F2FF03BC04F048F805E040F6C2
:10029000C41003F0E2FF01F078FEF8E71CB562E05D
:1002A00041F2883003F0D9FF3021FD4806F0AAFB67
:1002B0003021FC4806F0A6FB3021FB4806F0A2FBEB
:1002C0003021FA4806F09EFB3021F94806F09AFBEF
:1002D0003021F84806F096FB3021F74806F092FBF3
:1002E0003021F64806F08EFBF548002101604160A0
:1002F000F44801604160F448C3788278F3A1E8488B
:1003000006F092FAE649E74806F04EFBEE484378DD
:100310000278EEA1E44806F087FAE349E34806F0E4
:1003200043FBEC4890ED000B53EC102BEAA1E048A6
:1003300006F07AFADE49DF4806F036FBE748E8A126
:100340000268DD4806F070FADB49DC4806F02CFB59
:10035000E4480068D949D74BD44ACDE90010D149C7
:10036000E1A001F0C6FB9BE72CE001F075F910EE6F
:10037000104A204609F08EF8D64A03C24FF47A702C
:1003800003F06BFF9FEDD90B53EC102BD14890ED90
:10039000000B51EC100B08F085FE04D2D548006824
:1003A000401CD4490860D34800680A280AD101F0EB
:1003B00035F84FF47A7003F050FF01F036F8002062
:1003C000CC490860D1E718E0BF4800F04EFF4FF479
:1003D000FA6003F042FFBC488078322803DD012038
:1003E000C549086002E00020C3490860C2480068AF
:1003F000012802D12D2001F06EFEE5E707E001F0B3
:100400004AF8B64908604FF4487003F026FFF6E753
:1004100008B54FF4FA7003F020FF00F0D2FB102370
:1004200054220021082000F00AFC10233A22002167
:10043000184600F004FC102348220221082000F096
:10044000FEFB10233A220221184600F0F8FB13228B
:100450000421002000F0B9FC10233A2204211846A0
:1004600000F0EDFB12220621002000F0AEFC10236C
:100470003A220621184600F0E2FB7BE000240EE061
:1004800004F1B000002100F040FB182504E0012138
:10049000002000F03AFB6D1C202DF8DBA41C042C7E
:1004A000EEDB04240EE004F1B000002100F02DFB8F
:1004B000172504E00121002000F027FB6D1C302DE2
:1004C000F8DBA41C082CEEDB4FF47A7003F0C5FEB9
:1004D000102000907C48827802230021182000F030
:1004E00006FC102000907848027802231946182054
:1004F00000F0FDFB9FED810B53EC102B754890ED48
:10050000000B51EC100B08F093FC0AD216220421C8
:10051000182000F05AFC17220421282000F055FC76
:1005200009E014220421182000F04FFC15220421B8
:10053000282000F04AFC69480068142805DB674859
:10054000006841F28831884205DD0F22062118201B
:1005500000F03BFC04E011220621182000F035FCDD
:1005600010220621282000F030FC4FF4FA6003F03E
:1005700074FE00BF82E770B50446002500BF04F09A
:100580006BFA05F0FFFF05460C235E4A0021AFF22F
:100590007F1005F0D7FB0B235B4A0021AFF2A310BD
:1005A00005F0D0FB0A23594A0021AFF2E51005F00F
:1005B000C9FB0923564A0021AFF2532005F0C2FBC4
:1005C0000623544A0021AFF22B3005F0BBFB052374
:1005D000514A0021AFF24B3005F0B4FB0F2005F07B
:1005E00031FE284605F0D2FF70BD10B5A82003F0FB
:1005F000E3FD4FF4407001F041FE4FF4E13003F0B1
:1006000090FE4FF4165003F0D1FE01F019FD0020CA
:1006100001F061FD00F0E4FE00F0E0FF00F041FCBD
:1006200000F0CFFA00F0CBFC00F00AFF00F002FE71
:1006300001F034FC01F089F80E220221122000F0B2
:10064000C4FB01F095F90E220221242000F0BDFB2D
:1006500001F0CAF90E220221362000F0B6FB00F0AC
:10066000B0FA00F0D6FC00F0D9FE1E4908604FF445
:10067000FA7003F0F2FD00F0D8FE1A49086040F667
:10068000C41003F0EAFD04F0ABF80F23234A002165
:10069000AFF21D1005F056FB04F0C6F9002010BDA6
:1006A00000100020100F0020D00F0020A00F00200D
:1006B00030100020400F002060100020700F00203C
:1006C00018000020200000200000002025642E25B6
:1006D00064000000100000202566000008000020D3
:1006E000256400002C0000203800000000000000FD
:1006F00000003440300000203400002000000000E2
:1007000000002440643900208C1700208C1B00203E
:100710006421002064250020642900208C12002020
:100720000EE000200E4908604FF4FA7003F095FDCA
:1007300001200C49C1F89C024FF4FA7003F08DFDC2
:10074000EFE70BE00848006810B900F067FE01E031
:1007500000F06BFE4FF4487003F07FFDF2E70000FD
:100760009C024042000040422C000020704700BF25
:10077000FEE700BFFEE700BFFEE700BFFEE77047F1
:10078000704700000CB5002001900090764800688A
:1007900040F480307449086000BF7348006800F47A
:1007A000003000900198401C0190009818B9019801
:1007B000B0F5A04FF1D16C48006800F4003010B1E2
:1007C0000120009001E0002000900098012846D10F
:1007D00065484030006840F080506349403108600F
:1007E0006248006840F44040604908605E48083054
:1007F00000685D49083108600846006840F4004020
:1008000008600846006840F4A05008605848091F76
:100810000860081F006840F08070091F086000BF72
:100820005148006800F000700028F9D040F20570CF
:10083000504908604C480830006820F003004A49DD
:10084000083108600846006840F00200086000BFF8
:1008500045480830006800F00C000828F8D10CBDAD
:1008600010B54548006840F47000434908603E48B0
:10087000006840F001003C49086000203A49083116
:100880000860394800683D490840374908603C48DD
:10089000091D0860081F006820F48020091F0860F7
:1008A000002031490C310860FFF76CFF4FF0006009
:1008B00031498039086010BD70B500200022022344
:1008C00000240221284D08352D6805F00C0020B1C8
:1008D000042806D0082834D107E02A4D2A4E356076
:1008E00033E02A4D284E35602FE01F4D2D1D2D6819
:1008F000C5F380541C4D2D1D2D6805F03F0154B1EA
:10090000224DB5FBF1F5184E361D3668C6F3881634
:1009100005FB06F209E01B4DB5FBF1F5124E361D45
:100920003668C6F3881605FB06F20F4D2D1D2D689F
:10093000C5F301456D1C6B00B2FBF3F5124E35603B
:1009400003E0104D104E356000BF00BF064D083566
:100950002D68C5F303150E4E705D0B4D2D68C54017
:10096000094E356070BD0000003802400070004044
:1009700008544007003C024088ED00E0FFFFF6FE0F
:10098000103000240024F4004000002000127A00FF
:100990004400002010B504464FF40070FA49086086
:1009A0000846047100208871032048710020C87136
:1009B000F64801F059FD10BD10B50120FFF7EAFF20
:1009C0000120F3490860F349C1F8A402052003F0AF
:1009D00019FC0020EE49091D0860052003F012FCF7
:1009E0000020EC49C1F8A002052003F00BFC10BD6B
:1009F00010B50120FFF7CEFF0120E5490860002077
:100A0000E449C1F8A402052003F0FCFB0120E04901
:100A1000091D0860052003F0F5FB10BD10B500248A
:100A20000020FFF7B7FF0120D9490860052003F037
:100A3000E9FBD848D0F8240208B1012400E00024E2
:100A40000020D3490860052003F0DCFB204610BDE0
:100A500070B505460120FFF79DFF0020CC490860D6
:100A6000CC49C1F8A402052003F0CCFB07241DE00B
:100A70000120A040284020B10120C549091D08607F
:100A800003E00020C249091D0860052003F0BAFBFD
:100A90000120BF490860052003F0B4FB0020BD49D8
:100AA000C1F8A002052003F0ADFB641E002CDFDAC4
:100AB00070BD10B50446FFF77FFF7820FFF7C8FF31
:100AC000FFF7ACFF0020FFF7C3FFFFF7A7FF2046AB
:100AD000FFF7BEFFFFF7A2FFFFF78AFF10BD10B5BB
:100AE0000446FFF769FF7820FFF7B2FFFFF796FF94
:100AF0004020FFF7ADFFFFF791FF2046FFF7A8FF6B
:100B0000FFF78CFFFFF774FF10BD70B504460D466C
:100B10001DB1E0B2FFF7E3FF02E0E0B2FFF7C9FF6B
:100B200070BD70B50646002418E004F1B000002145
:100B3000FFF7EBFF00210846FFF7E7FF0021102039
:100B4000FFF7E3FF002505E001213046FFF7DDFF59
:100B5000681CC5B2802DF7DB601CC4B2082CE4DB36
:100B600070BD70B504460D4605F1B0000021FFF7D9
:100B7000CCFF102141EA14100021FFF7C6FF04F05A
:100B80000F000021FFF7C1FF70BD10B500218D20BF
:100B9000FFF7BBFF00211420FFF7B7FF0021AF20B4
:100BA000FFF7B3FF10BD10B500218D20FFF7ADFF9B
:100BB00000211020FFF7A9FF0021AE20FFF7A5FFBD
:100BC00010BD70B5002418E004F1B0000021FFF75B
:100BD0009CFF00210846FFF798FF00211020FFF737
:100BE00094FF002505E001210020FFF78EFF681C1F
:100BF000C5B2802DF7DB601CC4B2082CE4DB70BDED
:100C000070B5002418E004F1B0000021FFF77DFF6B
:100C100000210846FFF779FF00211020FFF775FF3C
:100C2000002505E001210846FFF76FFF681CC5B2EB
:100C3000802DF7DB601CC4B2082CE4DB70BD2DE90D
:100C4000F04707460E469046994600250024A8F135
:100C50002000C5B27F2F02DD0027B01CC6B2B9F15B
:100C6000100F24D131463846FFF77BFF002408E0FF
:100C700004EB0511484A505C0121FFF746FF601C58
:100C8000C4B2082CF4DB701CC1B23846FFF769FF10
:100C9000002409E004EB051108313F4A505C0121B2
:100CA000FFF733FF601CC4B2082CF3DB12E03146BF
:100CB0003846FFF756FF00240AE005EB4501374AA6
:100CC00002EB4101085D0121FFF71FFF601CC4B268
:100CD000062CF2DBBDE8F08710B50246012000E0EB
:100CE00050430B00A1F10104E1B2F9D110BD2DE98F
:100CF000FF5F074691461E460E9D4FF0000A0024F6
:100D000035E0301B401EC1B20A20FFF7E5FFB9FBFA
:100D1000F0F00A21B0FBF1F201FB1208BAF1000F6A
:100D200014D1701EA04211DDB8F1000F0CD1AB46FA
:100D300005EBDB71491001FB0471C8B22B46202280
:100D40000199FFF77CFF10E04FF0010AAB4605EB7D
:100D5000DB71491001FB0471C8B208F13001CAB25D
:100D60002B460199FFF76BFF00BF601CC4B2B44271
:100D7000C7DBBDE8FF9F2DE9F04104460F4615464D
:100D8000984600261CE000006C0E00200004024083
:100D9000A0824042008040427C020020540000209B
:100DA000AA5D434639462046FFF749FF04F1080093
:100DB000C4B2782C02DD0024B81CC7B2701CC6B2C5
:100DC000A85D0028ECD1BDE8F0812DE9F041804616
:100DD0000E461546002731464046FFF7C2FE002466
:100DE0000AE0FC4A02EB8511085D0121FFF78DFE48
:100DF000781CC7B2601CC4B2102CF2DB701CC1B2EC
:100E00004046FFF7AEFE00240CE06900491CF14AA1
:100E100002EB4111085D0121FFF777FE781CC7B294
:100E2000601CC4B2102CF0DBBDE8F0812DE9F05F4E
:100E300006460F4690461C46DDF828A04FF0000BF2
:100E4000E11704EB5171C910A4EBC10131B920467F
:100E5000E11704EB5171C1F3C70506E02046E11725
:100E600004EB5171C910491CCDB23D4615E029462D
:100E70003046FFF776FEB1460BE059460BF1010B09
:100E80001AF801000121FFF740FE09F1010000F00E
:100E9000FF09C145F1DB681CC5B2A542E7DBBDE82F
:100EA000F09F10B50121022001F07CFD4FF440704D
:100EB000C949086001200871002088710320487129
:100EC0000020C871C54801F0CFFA0120C44908606C
:100ED000C449C1F8A402C82003F0BFF90021AE2024
:100EE000FFF713FE00210846FFF70FFE0021102038
:100EF000FFF70BFE00214020FFF707FE0021B02086
:100F0000FFF703FE00218120FFF7FFFD0021FF20F6
:100F1000FFF7FBFD0021A120FFF7F7FD0021A62030
:100F2000FFF7F3FD0021A820FFF7EFFD00213F2090
:100F3000FFF7EBFD0021C820FFF7E7FD0021D320DC
:100F4000FFF7E3FD00210846FFF7DFFD0021D52074
:100F5000FFF7DBFD00218020FFF7D7FD0021D8201F
:100F6000FFF7D3FD00210520FFF7CFFD0021D92099
:100F7000FFF7CBFD0021F120FFF7C7FD0021DA20AC
:100F8000FFF7C3FD00211220FFF7BFFD0021DB208A
:100F9000FFF7BBFD00213020FFF7B7FD00218D20BA
:100FA000FFF7B3FD00211420FFF7AFFD0021AF20B4
:100FB000FFF7ABFD00212E20FFF7A7FD10BD10B5F8
:100FC000002211461046FFF700FF012200211220E7
:100FD000FFF7FBFE022200212420FFF7F6FE03228A
:100FE00000213620FFF7F1FE042200214820FFF700
:100FF000ECFE052200215A20FFF7E7FE0622002121
:101000006C20FFF7E2FE072202210020FFF7DDFE41
:1010100010BD10B5052204211220FFF7D6FE0622CE
:1010200004212420FFF7D1FE072204213620FFF7F8
:10103000CCFE082204214820FFF7C7FE0922042124
:101040005A20FFF7C2FE10BD10B51C22022100205D
:10105000FFF7BBFE1D2202211220FFF7B6FE1E2263
:1010600002212420FFF7B1FE10233A22022136206C
:10107000FFF7E5FD1F2202214820FFF7A6FE2022F0
:1010800002215A20FFF7A1FE212202216C20FFF746
:101090009CFE10BD10B5182206210020FFF795FE1A
:1010A000192206211220FFF790FE10233A22062172
:1010B0002420FFF7C4FD10236D2206215A20FFF7DC
:1010C000BEFD10236D2206216C20FFF7B8FD10BD78
:1010D00010B51023322205210020FFF7B0FD1023A8
:1010E000302205210C20FFF7AAFD10233222052112
:1010F0001820FFF7A4FD1023342205212420FFF738
:101100009EFD10232F2205213020FFF798FD10238C
:10111000352205213C20FFF792FD10232F220521C7
:101120004820FFF78CFD1023312205215420FFF7C2
:1011300086FD1023382205216020FFF780FD10BDB9
:1011400010B5072203210020FFF73FFE0A220321EA
:101150001220FFF73AFE0B2203212420FFF735FE71
:101160000C2203213620FFF730FE0D2203214820F8
:10117000FFF72BFE0E2203215A20FFF726FE0F2237
:1011800003216C20FFF721FE10BD10B508220321BA
:101190000020FFF71AFE0A2203211220FFF715FE96
:1011A0000B2203212420FFF710FE0C2203213620FE
:1011B000FFF70BFE0D2203214820FFF706FE0E224B
:1011C00003215A20FFF701FE0F2203216C20FFF7B5
:1011D000FCFD10BD6C0800206C0E002000040240D5
:1011E000A08240420080404210B509220321002025
:1011F000FFF7EBFD0A2203211220FFF7E6FD0B2289
:1012000003212420FFF7E1FD0C2203213620FFF704
:10121000DCFD0D2203214820FFF7D7FD0E2203211C
:101220005A20FFF7D2FD0F2203216C20FFF7CDFDDE
:1012300010BD00001CB50121084601F0B3FB4020A1
:10124000009001208DF8040000208DF80500012099
:101250008DF8060000208DF8070069465C4801F013
:1012600003F901205B4908601CBD2DE9FC4780465D
:10127000002400260027A1464546A24640200090B3
:1012800001208DF8040000208DF8050001208DF864
:10129000060000208DF8070069464D4801F0E4F88B
:1012A00000204C490860122002F0D7FF01204A4973
:1012B000C1F898021E2002F0A5FF402000900020F7
:1012C0008DF804008DF805008DF807006946404848
:1012D00001F0CAF800BF0AE0641C012002F092FF8E
:1012E0003E48844203DB4FF0FF30BDE8FC873948BD
:1012F000803800680028EFD1002408E0012002F0C7
:1013000081FF641C642C02DB6FF00100EDE73148C3
:10131000803800680028F1D0002408E0012002F0A5
:1013200071FF641C642C02DB6FF00200DDE72948CA
:10133000803800680028F1D1002736E04FF000091E
:1013400007262DE0002408E0012002F05BFF641C6A
:10135000642C02DB6FF00300C7E71E48803800688A
:101360000028F1D0282002F04DFF1A48803800688C
:10137000A8B10120B04040EA090000F0FF090024B4
:1013800008E0012002F03EFF641C642C02DB6FF0D9
:101390000400AAE70F48803800680028F1D1761EC3
:1013A000002ECFDA05F807907F1C052FC6DB2878C2
:1013B00069780844A9780844E978084400F0FF0AED
:1013C0002879504501D100208FE76FF005008CE7A8
:1013D00000000240980240420000404240420F009C
:1013E0001CB50121022001F0DDFA08200090012047
:1013F0008DF8040000208DF806008DF8050001200E
:101400008DF8070069460C4801F02EF801200B49C1
:1014100008600821084801F0A3F81CBD10B5082198
:10142000054801F09FF8012010BD10B508210248C1
:1014300001F096F8002010BD000402408C8240426A
:101440001CB50121042001F0ADFA8020009001209C
:101450008DF8040000208DF8060003208DF80500AB
:1014600000208DF807006946204800F0FDFF4FF48A
:101470008070009000208DF8040003208DF8050096
:1014800000208DF807006946184800F0EDFF0020A5
:10149000174908601CBD10B50024012014490860DC
:1014A000142002F0AFFE00201249C1F89C0209E0AE
:1014B000641C012002F0A6FE0F48844202D34FF0C4
:1014C000FF3010BD0A487C3800680028F0D00024A6
:1014D00003E0082002F096FE641C05487C38006892
:1014E0000028F6D1600800EB4000EAE7000802405F
:1014F0009C0241420000414240420F0000B58DB0C5
:101500000121084601F04EFA0121080201F0A4FA77
:1015100020200B9003208DF8300000208DF8330040
:101520000BA92C4800F0A0FF0121080201F0E9FA04
:1015300000214FF4807001F0E4FA002007900A9037
:1015400009904FF48030089007A801F0E3FD0020D7
:1015500001908DF808008DF8090003900590012096
:101560008DF8180001A91C4801F0A5FD01211A48B9
:1015700001F0E7FD0DB000BD10B5044607230122C0
:101580002146154801F01DFE134801F076FE00BF0C
:101590000221114801F092FF0028F9D00E4801F015
:1015A000A8FE10BD2DE9F04107460C460025002697
:1015B00008E03846FFF7E0FF0544052002F04DFE45
:1015C000701CC6B2A642F4DBB5FBF4F080B2BDE8F5
:1015D000F0810000000002400020014000B58DB005
:1015E0000121022001F0DEF90121080201F034FAA4
:1015F00002200B9003208DF8300000208DF833007E
:101600000BA93E4800F030FF0121080201F079FAF1
:1016100000214FF4807001F074FA002007900A90C6
:1016200009904FF48030089007A801F073FD002066
:1016300001908DF808008DF80900039005900120B5
:101640008DF8180001A92E4801F035FD01212C4824
:1016500001F077FD0DB000BD10B52DED0A8B002413
:101660009FED280BB0EE408AF0EE608A9FED250BCF
:10167000B0EE409AF0EE609A0A210E20FFF792FF3A
:101680000446204607F0C0FB41EC1A0B9FED1F0BF0
:1016900053EC102B07F008FC41EC180B53EC182B03
:1016A0009FED1C0B51EC100B07F00AFE41EC1B0BDD
:1016B00053EC182B9FED190B51EC100B07F0F4FBBA
:1016C00041EC1C0B53EC1B2B07F002FA41EC1A0BFC
:1016D0009FED141BB0EE4A0AF0EE6A0A06F0B8F964
:1016E000B0EE409AF0EE609A51EC190B07F002F957
:1016F00000EE100ABDEC0A8B10BD00000004024091
:1017000000200140000000000000000066666666E0
:1017100066664A3F0000000000001440713D0AD791
:10172000A370414004734B7001FA084010B54FF4A8
:10173000967002F092FDFF21F64805F041F9002075
:10174000F5490860F549086010BD10B50024002077
:10175000F3490860F3A005F05BF8F7A1F84802F040
:1017600069FE40F6B83002F078FDEA49F5A005F0D0
:101770004FF8F5A005F04CF8F7A1E64805F002F99E
:10178000F649086010E0F6A005F042F8EAA1EC483E
:1017900002F050FE4FF4967002F05FFDEEA1DD48BE
:1017A00005F0F0F8ED490860EC4800680028EAD040
:1017B000F2A1E34802F03EFE4FF4967002F04DFDB8
:1017C000F1A1D44805F0DEF8E44908600846006855
:1017D00048B9D0490831EEA005F01AF84FF49670D8
:1017E00002F03BFD0AE00120CD490860C949EDA0A7
:1017F00005F00EF84FF4967002F02FFDEDA1D048E1
:1018000002F018FE4FF4967002F027FDD2A1C148F5
:1018100005F0B8F8D14908600846006830B1E8A082
:1018200004F0F6FF4FF4967002F017FDE8A1C448EB
:1018300002F000FE4FF4967002F00FFDE7A1B548EC
:1018400005F0A0F8C5490860002415E0641CE0A17B
:10185000BB4802F0EFFD4FF4967002F0FEFCDFA1F2
:10186000AC4805F08FF8BD490860642C04DD012008
:10187000AB490860002403E0B84800680028E5D0C0
:1018800000BFD9A1AE4802F0D5FD4FF4967002F02A
:1018900006FDB1A19F4805F075F8B04908600846FB
:1018A000006838B19B49D3A004F0B2FF4FF49670A2
:1018B00002F0F5FCD7A1A24802F0BCFD4FF49670EF
:1018C00002F0EDFCD6A1934805F05CF8A34908604E
:1018D0000846006838B18F49D3A004F099FF4FF44F
:1018E000967002F0DCFCD4A1954802F0A3FD4FF401
:1018F000967002F0D4FCD3A1864805F043F89749CE
:101900000860D3A1834805F03DF8D4490860FFF78B
:101910000DFF0024D2A004F07BFF1EE0641CD2A0C7
:1019200004F076FFC4A1864802F084FD4FF496705F
:1019300002F0B5FCC3A1774805F024F88749086098
:10194000C3A1744805F01EF8C4490860642C04DD86
:10195000012073490860002406E08048006818B937
:10196000BE4800680028D9D000BF6D48006810BD8F
:1019700010B50024BEA1724802F05CFD4FF49670D1
:1019800002F08DFCBEA16E4802F054FD4FF496703B
:1019900002F085FC8EA16A4802F04CFD4FF496706F
:1019A00002F07DFC8DA15B4804F0ECFF6B49086000
:1019B00012E0641C86A1624802F03CFD4FF4967070
:1019C00002F06DFC85A1534804F0DCFF6349086018
:1019D000642C01DD002403E0604800680028E8D0A2
:1019E00000BFFFF7A3FE10BD08B5A7A1544802F041
:1019F00021FD4FF4967002F030FCA7A1504802F090
:101A000019FD4FF4967002F028FCA7A14C4802F093
:101A100011FD4FF4967002F020FCACA004F0F8FE2B
:101A2000FF21AD4804F0CCFFACA0B5A3B7A2BAA18A
:101A30000090A94804F0F8FEA749414802F0FAFCDA
:101A40004FF4967002F009FC43A1324804F09AFF6B
:101A50004249086005E040A12E4804F093FF3F4949
:101A600008603E4800680028F5D0B5A1344802F06F
:101A7000E1FC4FF4967002F0F0FBC0A1254804F0A1
:101A800081FF3649086005E0BCA1224804F07AFFD6
:101A900032490860314800680028F5D0FF218E489F
:101AA00004F08EFF96A2B9A18B4804F0BDFE8A49CE
:101AB000BBA004F0ADFE8849214802F0BBFC4FF406
:101AC000967002F0CAFB13491EA004F0A1FEB8A153
:101AD000104804F057FF2149086005E0B4A10D4803
:101AE00004F050FF1D4908601C4800680028F5D02C
:101AF00008BD2DE9FE4F82460C4615461E46DDE91F
:101B00000C784FF00009FF21734804F059FF7CA3C3
:101B10007EA255E1783E0020B00E0020AC0E0020E1
:101B20007C0E0020737461727420696E69742042A7
:101B30004332380D0A000000415445310D0A0000BF
:101B40000044004025730A00676574206261636B7E
:101B500020424332380D0A004F4B0000740E002023
:101B60000D0AB5A5C6ACBBFAD5FDD4DAC1ACBDD360
:101B7000B5BDC4A3BFE92E2E2E0D0A0041542B4340
:101B8000494D490D0A0000004552524F52000000D5
:101B9000CED2B5C4BFA8BAC5CAC7203A2025732083
:101BA0000D0A0000BFA8B4EDCEF3203A2025732023
:101BB0000D0A000041542B4347534E3D310D0A009E
:101BC00047455420494D4549204F4B0D0A00000020
:101BD00041542B43474154543F0D0A002B43474186
:101BE00054543A310000000041542B4E42414E44BF
:101BF0003F0D0A003D3D3D3D3D3D3D3D42414E4492
:101C00003D3D3D3D3D3D3D3D3D200D0A20257320A0
:101C10000D0A000041542B4353510D0A00000000EF
:101C20002B43535100000000D0C5BAC5D6CAC1BF6E
:101C30003A25730D0A00000041542B434552454795
:101C40003F0D0A002B43455245473A302C310000E6
:101C50002B43455245473A312C310000780E002085
:101C600073756363657373006572726F7200000051
:101C700041542B434750414444520D0A0000000098
:101C80004154490D0A00000041542B514D54434C1E
:101C90004F53453D300D0A0041542B514D5444499A
:101CA00053433D300D0A000041542B5149444E53DB
:101CB0004346473D22382E382E382E38222C2238E3
:101CC0002E382E342E34220D0A000000444E5320AC
:101CD0005355434345535300683B002063623431FE
:101CE00035653433396234373266343331373062F4
:101CF00032343065336135306632613800000000BF
:101D0000554E4970726F6A65637400006B316131C2
:101D1000615559307431740041542B514D54434630
:101D2000473D22414C4941555448222C302C222514
:101D300073222C222573222C222573220D0A0000E7
:101D400041542B514D544F50454E3D302C22696F1C
:101D5000742D61732D6D7174742E636E2D736861B3
:101D60006E676861692E616C6979756E63732E6345
:101D70006F6D222C313838330A0000002B514D543E
:101D80004F50454E3A20302C3000000041542B512A
:101D90004D54434F4E4E3D302C222573220D0A00E8
:101DA0006174737472203D202573200D0A000000B9
:101DB0002B514D54434F4E4E3A20302C302C300096
:101DC00021A1304804F030FD2E492F4802F032FBAB
:101DD0004FF4967002F041FA2CA12D4804F0D2FD88
:101DE0002C4908600AE009F101091E2002F035FAC9
:101DF00026A1274804F0C6FD26490860254800684A
:101E00000028F0D0FF211F4804F0DAFD2B462246BF
:101E100021491C488DE8C00104F006FD1949AFF2C4
:101E2000842004F0F5FC1749174802F003FB1E203C
:101E300002F013FA1A2002F033FB1E2002F00DFA12
:101E4000FFF774FCBDE8FE8F41542B514D545055A3
:101E5000423D302C302C302C302C222F7379732FB4
:101E600025732F25732F7468696E672F6576656EED
:101E7000742F70726F70657274792F706F73742223
:101E80000A000000683B0020004400403E000000C3
:101E9000783E0020740E0020A498000800B58DB094
:101EA0000121042000F07EFD0121480200F0D4FD54
:101EB00008200B9003208DF8300000208DF83300AF
:101EC0000BA95A4800F0D0FA0121480200F019FE8F
:101ED00000214FF4007000F014FE002007900A90DB
:101EE00009904FF48030089007A801F013F9002002
:101EF00001908DF808008DF80900039005900120ED
:101F00008DF8180001A94A4801F0D5F80121484888
:101F100001F017F90DB000BD10B5044607230122EA
:101F20002146434801F04DF9414801F0A6F900BFB0
:101F300002213F4801F0C2FA0028F9D03C4801F0E4
:101F4000D8F910BD2DE9F04107460C4600250026C2
:101F500008E03846FFF7E0FF0544052002F07DF970
:101F6000701CC6B2A642F4DBB5FBF4F080B2BDE84B
:101F7000F08110B5002402210D20FFF7E3FF044695
:101F80004FF47A7094FBF0F010BD70B50025FFF7A8
:101F9000F0FF04462748016827A004F039FC032C11
:101FA0000FDB4FF47A7002F058F922480068F8B954
:101FB000FFF7DFFF0446032C1ADB01201D490860F0
:101FC00016E01C48006818B9962002F046F970BD6A
:101FD00040F6C41002F041F9FFF7CBFF0446154864
:101FE0000068012804D1032C02DA0020114908609E
:101FF0001048006810B1012810D107E0002000F05F
:102000006AF840F6C41002F028F907E05A2000F000
:1020100062F841F2883002F020F900BF00BF4FF4AF
:10202000FA7002F01AF900BFD1E700000008024080
:1020300000210140800E00206F70656E3D25640018
:1020400000B58BB00121084600F0ACFC0121022054
:1020500000F0F1FC8020099002208DF8280000207B
:102060008DF82A0003208DF8290000208DF82B0020
:1020700009A9664800F0F8F902220721634800F038
:102080007EFAC820079042F2CF00ADF81800002079
:10209000ADF82000ADF81A0006A95D4801F0DFFA9E
:1020A0006020ADF804000120ADF806000020ADF876
:1020B000100001A9564801F0A0FB0821544801F086
:1020C000F9FC0121524801F035FB0121504801F093
:1020D0004FFB0BB000BD2DE9F0412DED068B044602
:1020E0002646C825E4B90026284606F076FE41ECCF
:1020F0001A0B9FED480B53EC102B06F0D5FE41EC6C
:10210000190B9FED460B53EC102B06F0E1FC41EC54
:10211000180B06F035FE074639463D4801F08FFCA6
:102120000F2C1CD10F26284606F057FE41EC1A0B47
:102130009FED3C0B53EC102B06F0B6FE41EC190B57
:102140009FED360B53EC102B06F0C2FC41EC180B44
:1021500006F016FE074639462D4801F070FC2D2C7E
:1021600007D12D26142095FBF0F73946284801F0B9
:1021700066FC5A2C1CD15A26284606F02EFE41EC4D
:102180001A0B9FED2A0B53EC102B06F08DFE41EC41
:10219000190B9FED220B53EC102B06F099FC41EC30
:1021A000180B06F0EDFD07463946194801F047FCCB
:1021B000872C08D187266800142190FBF1F7394657
:1021C000134801F03CFCB42C1CD1B426284606F080
:1021D00004FE41EC1A0B9FED170B53EC102B06F08D
:1021E00063FE41EC190B9FED0D0B53EC102B06F029
:1021F0006FFC41EC180B06F0C3FD07463946044856
:1022000001F01DFCBDEC068BBDE8F0810000024032
:1022100000040040000000000000E03F000000005B
:10222000000034401F85EB51B81ED53F0000000070
:102230000000F83F0000000000000440094880470B
:1022400009480047FEE7FEE7FEE7FEE7FEE7FEE798
:10225000FEE7FEE7FEE7FEE704480549054A064BB0
:10226000704700006108000889010008C054002080
:10227000C05A0020C0560020C056002032490143F9
:10228000324A1160704770B5002100230F22C478D4
:102290001CB32E4C246804F4E064C4F5E064C4F379
:1022A0000721C1F10404E3B20A4144789C40E1B241
:1022B0008478144021430C07210E254C0578615584
:1022C000047804F01F050124AC4005786D11AD00C1
:1022D00005F1E025C5F8004109E0047804F01F0588
:1022E0000124AC401B4D0678761145F8264070BDA0
:1022F000194A0A400243154B1B1F1A60704739B137
:10230000124A121D12680243104B1B1D1A6006E090
:102310000E4A121D126882430C4B1B1D1A60704737
:10232000042808D14FF0E021096941F004014FF081
:10233000E022116107E04FF0E021096921F004017A
:102340004FF0E022116170470000FA050CED00E04B
:1023500000E400E080E100E080FFFF1F10B50446CC
:102360009848844208D10121084600F086FB0021EC
:10237000012000F082FB76E09348844208D10121DD
:10238000022000F07AFB0021022000F076FB6AE0D8
:102390008E48844208D10121042000F06EFB002108
:1023A000042000F06AFB5EE08948844208D10121E4
:1023B000082000F062FB0021082000F05EFB52E0E4
:1023C0008448844208D10121102000F056FB0021EE
:1023D000102000F052FB46E07F48844208D10121E2
:1023E000202000F04AFB0021202000F046FB3AE0CC
:1023F0007A48844208D10121402000F03EFB0021B0
:10240000402000F03AFB2EE07548844208D10121BB
:10241000802000F032FB0021802000F02EFB22E023
:102420007048844208D10121801500F026FB00216C
:10243000A01500F022FB16E06B48844208D1012170
:10244000401500F01AFB0021601500F016FB0AE0B1
:102450006648844207D10121001500F00EFB0021DF
:10246000201500F00AFB10BDF0B50A46002100233C
:10247000002400BF3DE0012505FA01F3156805EAD7
:1024800003049C4234D105684F000326BE40B54387
:10249000056015794E00B54006683543056015792D
:1024A000012D02D01579022D16D185684F00032623
:1024B000BE40B543856055794E00B54086683543CA
:1024C0008560456801268E40B5434560456896792C
:1024D0008E40B6B235434560C5684F000326BE4006
:1024E000B543C560D5794E00B540C6683543C56073
:1024F000491C1029BFD3F0BD4FF6FF7101600021C8
:10250000017141718171C171704708B54FF480321A
:102510000092009A0A430092009AC261C161009A37
:10252000C261C2690092C269009208BD02460020E1
:1025300013690B400BB1012000E0002070470146F9
:10254000086980B270470246002053690B400BB106
:10255000012000E0002070470146486980B27047C2
:1025600001837047418370470AB1018300E04183D2
:1025700070474161704742694A4042617047F0B517
:10258000002300244D07ED0E02FA05F3CE1000F1F2
:10259000200555F826504E07F70E0F26BE40B543CE
:1025A000CF1000F1200646F82750CE1000F120058C
:1025B00055F8265045EA0304CE1000F1200545F8F1
:1025C0002640F0BD00000240000402400008024026
:1025D000000C0240001002400014024000180240AB
:1025E000001C02400020024000240240002802405B
:1025F000F948006840F00100F74908600020F649FA
:1026000008310860F4480068F4490840F24908605D
:10261000F348091D0860F348EF4984310860F04829
:102620001038091D0860EC48006820F48020EA4951
:1026300008600020E8490C310860E7498C310860E7
:1026400070470021E44A921C1170114608707047CF
:1026500010B501460022002300204A11012A02D1B0
:10266000DD4C236808E0022A03D1DB4C7034236878
:1026700002E0D94C7434236801F01F020124944015
:102680001C400CB1012000E0002010BD38B5002036
:1026900000900024002500BF3120FFF7D9FF054638
:1026A0000098401C00900098B0F5A04F01D0002D7C
:1026B000F2D03120FFF7CCFF08B1012400E0002464
:1026C000204638BD01460020C34A106820F0F800BB
:1026D00040EAC10010607047C3490860704700219C
:1026E000BD4A703211701170012802D004280AD13D
:1026F00004E00121B84A7032117005E00521B64AA4
:102700007032117000E000BF00BF7047B749086029
:10271000704770B5049C41EA82150126C6EB53064A
:1027200045EA0645054345EA0465AB4E361D35606E
:1027300070BDAD4908667047820142EA0172A64B3E
:1027400084331A607047A8498866704710B58301C2
:1027500043EA016343EA02739F4C8834236010BD4F
:10276000A14908677047A049C86470470246002025
:10277000994B0833186820F0EC6042EA01031843D3
:10278000954B08331860704702460020924B08337F
:10279000186820F0784042EA010318438E4B083352
:1027A00018607047014600208B4A0832106820F0FC
:1027B000030008431060704787480830006800F045
:1027C0000C00704701460020834A0832106820F050
:1027D000F000084310607047014600207E4A08322E
:1027E000106820F4E0500843106070470146002054
:1027F000794A0832106820F4604040EAC100106055
:102800007047F0B500210022002402250026022393
:10281000714F08373F6807F00C0121B1042905D03A
:10282000082937D105E0724F076036E0714F076025
:1028300033E0694F3F1D3F68C7F38056664F3F1D29
:102840003F6807F03F036EB16A4FB7FBF3F7DFF85D
:1028500088C10CF1040CDCF800C0CCF3881C07FB29
:102860000CF40CE0624FB7FBF3F7DFF86CC10CF12E
:10287000040CDCF800C0CCF3881C07FB0CF4564FAA
:102880003F1D3F68C7F301477F1C7D00B4FBF5F790
:10289000076002E0564F076000BF00BF4E4F083789
:1028A0003F6807F0F0010909534F7A5C0768D74089
:1028B0004760494F08373F6807F4E051890A4E4F97
:1028C0007A5C4768D7408760434F08373F6807F412
:1028D0006041490B484F7A5C4768D740C760F0BDFC
:1028E000002100F44072B2F5407F0AD13A4A083222
:1028F000116821F4F811414A02401143364A083266
:102900001160354A70321268C0F30B031A43324B20
:1029100070331A607047354944390860704733494D
:10292000403908607047364908607047014600200A
:10293000294A8C32106820F01F004A1E1043264A94
:102940008C321060704701460020234A8C32106898
:1029500020F4F8504A1E40EA02201F4A8C321060D0
:102960007047014600201C4A8C32106820F4401049
:1029700008431060704701460020174A8C321068E7
:1029800020F4400008431060704701460020124ABE
:102990008C32106820F440300843106070471949A9
:1029A0000860704739B10C4A3032126802430A4B52
:1029B00030331A6006E0084A303212688243064B10
:1029C00030331A607047F9B1034A34321268024357
:1029D000014B34331A601CE000380240FFFFF6EA76
:1029E000103000240030002000004742800E474293
:1029F0000024F40000127A00840E0020FFFCFF0F78
:102A00005C014742E01147428F4A126882438E4B75
:102A10001A60704739B18C4A121D126802438A4B02
:102A20001B1D1A6006E0884A121D12688243864BFD
:102A30001B1D1A60704739B1834A0C321268024379
:102A4000814B0C331A6006E07F4A0C3212688243D5
:102A50007D4B0C331A60704739B17B4A10321268D3
:102A60000243794B10331A6006E0774A103212683D
:102A70008243754B10331A60704739B1724A243A59
:102A800012680243704B243B1A6006E06E4A243AF7
:102A9000126882436C4B243B1A60704739B16A4A12
:102AA000203A12680243684B203B1A6006E0664AEF
:102AB000203A12688243644B203B1A60704739B158
:102AC000614A1C3A126802435F4B1C3B1A6006E0E5
:102AD0005D4A1C3A126882435B4B1C3B1A6070478C
:102AE00039B1594A143A12680243574B143B1A60E1
:102AF00006E0554A143A12688243534B143B1A605D
:102B0000704739B1504A103A126802434E4B103B9D
:102B10001A6006E04C4A103A126882434A4B103B56
:102B20001A60704739B1484A1C3212680243464B5A
:102B30001C331A6006E0444A1C3212688243424B3E
:102B40001C331A60704739B13F4A20321268024381
:102B50003D4B20331A6006E03B4A20321268824324
:102B6000394B20331A60704739B1374A2432126822
:102B70000243354B24331A6006E0334A243212688C
:102B80008243314B24331A60704739B12E4A2C32BC
:102B9000126802432C4B2C331A6006E02A4A2C326E
:102BA00012688243284B2C331A60704739B1264A89
:102BB000303212680243244B30331A6006E0224A56
:102BC000303212688243204B30331A60704701283C
:102BD00008D11D493C31096841F008011A4A3C32CC
:102BE000116007E018493C31096821F00801164AD4
:102BF0003C321160704739B1134A273A12780243C8
:102C0000114B273B1A7006E00F4A273A127882438D
:102C10000D4B273B1A7070470B484030006840F05E
:102C20008070094940310860704701460020064A1B
:102C3000283A12680A400AB1012000E000207047DB
:102C400001492639087070473438024010B50446EF
:102C5000FA48844208D101211020FFF752FF0021D9
:102C60001020FFF74EFF57E0F548844209D10121BB
:102C70004804FFF735FF00214FF40030FFF730FF25
:102C80004AE0F048844209D101218804FFF728FF77
:102C900000214FF48020FFF723FF3DE0EA48844203
:102CA00009D10121C804FFF71BFF00214FF40020C8
:102CB000FFF716FF30E0E548844209D101210805FD
:102CC000FFF70EFF00214FF48010FFF709FF23E00C
:102CD000DF48844208D101212020FFF712FF0021A4
:102CE0002020FFF70EFF17E0DA48844209D10121C6
:102CF0008807FFF7F5FE00214FF08040FFF7F0FE58
:102D00000AE0D548844207D101214005FFF7E8FEDB
:102D100000216005FFF7E4FE10BD2DE9FF470546E1
:102D20000E460024A14600BFA046B08900B100BFF6
:102D30002C8A24F44054F08804432C82AC8941F25C
:102D40000C608443B0883189084371890843044387
:102D5000AC81AC8A24F44074B0890443AC826846E8
:102D6000FFF74FFDB548854202D0B948854202D1F0
:102D7000DDF80C9001E0DDF80890A88900F400402F
:102D800040B109EBC90000EB091031684900B0FB04
:102D9000F1F707E009EBC90000EB09103168890081
:102DA000B0FBF1F76420B7FBF0F0040120096421C7
:102DB00001FB1078A88900F4004040B1322000EBFC
:102DC000C800B0FBF1F000F00700044308E0322037
:102DD00000EB08106421B0FBF1F000F00F00044399
:102DE0002C81BDE8FF874FF41651016000218180DE
:102DF000C18001810C21418100218181704710B582
:102E000002460020108A20F470600B884C8823430F
:102E10008C882343CC8823431843108210BD0021A3
:102E2000018041808180C180704721B1828942F454
:102E30000052828104E082894DF6FF731A4082813C
:102E40007047028B02F47F420283028B0A430283A3
:102E5000704721B1828942F40042828103E0828975
:102E6000C2F30E028281704721B1828A42F400626D
:102E7000828204E0828A4FF2FF731A408282704796
:102E8000C1F308028280704701468888C0F30800B9
:102E90007047028A4FF6F0731A400282028A0A4390
:102EA0000282704721B1828942F00202828104E0ED
:102EB00082894FF6FD731A408281704782894FF2F2
:102EC000FF731A40828182890A4382817047028A95
:102ED0004FF6DF731A400282028A0A430282704769
:102EE00021B1028A42F48042028204E0028A4BF657
:102EF000FF731A4002827047818941F0010181818C
:102F0000704721B1828A42F00802828204E0828AFC
:102F10004FF6F7731A4082827047028BD2B2028357
:102F2000028B42EA01220283704721B1828A42F079
:102F30002002828204E0828A4FF6DF731A40828286
:102F4000704721B1828A42F01002828204E0828AB4
:102F50004FF6EF731A4082827047828A4FF6FB73F6
:102F60001A408282828A0A438282704721B1828A11
:102F700042F00202828204E0828A4FF6FD731A4018
:102F8000828270471AB1838A0B43838202E0838A6C
:102F90008B4383827047F0B503460024002600254A
:102FA000002040F66A17B94200D100BF1846C1F3AD
:102FB000421401F01F06012707FA06F5012C01D182
:102FC0000C3004E0022C01D1103000E014301AB1B2
:102FD00007682F43076002E00768AF430760F0BD52
:102FE00002460020B1F5007F00D100BF13880B40DE
:102FF0000BB1012000E00020704701F40072B2F52F
:10300000007F00D100BFCA430280704770B50246FE
:10301000002400230025002040F66A16B14200D1AA
:1030200000BFC1F3421501F01F03012606FA03F3A6
:10303000012D13D19689334017E0000000100140A4
:103040000044004000480040004C00400050004058
:103050000014014000780040007C0040022D02D1A5
:10306000168A334001E0968A33400C12012606FA94
:1030700004F41688344013B10CB1012000E00020A4
:1030800070BD10B50022002340F66A14A14200D1A1
:1030900000BF0A1201249440A3B2DC43048010BD97
:1030A00010B501210802FFF72CFD00214FF48070BC
:1030B000FFF727FD10BD30B5024600200023506801
:1030C000F84C20400D790C6844EA052420435060F8
:1030D0009068F54C2040D1E903542C438D682C4373
:1030E0004D7944EA450420439060D06A20F4700092
:1030F0000C7D641EE4B2234340EA0350D06230BD2D
:1031000000210160017141718160C1600161012193
:10311000017570470021E54A1168E54A1140D0E980
:1031200000231A4383681A43C3681A431143E14AD0
:10313000C2F8041370470021016041608160C160E2
:10314000704721B1826842F00102826003E0826828
:1031500022F00102826070470A4600214168D64B86
:1031600019401143416070474162826270470A46CC
:103170000021416821F01F0111434160704738B1BF
:10318000CA49096841F40001CA4AC2F8041306E0BA
:10319000C649096821F40001C64AC2F80413704701
:1031A00038B1C249096841F48001C24AC2F8041327
:1031B00006E0BE49096821F48001BE4AC2F8041342
:1031C0007047F0B504460D4600200021092D11DDA1
:1031D000E068A5F10A0606EB4607072606FA07F19E
:1031E0008843A5F10A0606EB460603FA06F10843F2
:1031F000E0600CE0206905EB4507072606FA07F1B9
:10320000884305EB450603FA06F108432061072AC7
:103210000FDA606B561E06EB86071F2606FA07F1CB
:103220008843561E06EB860605FA06F108436063DE
:1032300022E00D2A0FDA206BD61F06EB86071F2629
:1032400006FA07F18843D61F06EB860605FA06F153
:103250000843206310E0E06AA2F10D0606EB860742
:103260001F2606FA07F18843A2F10D0606EB860633
:1032700005FA06F10843E062F0BD816841F0804143
:1032800081607047014600208A6802F080420AB1DE
:10329000012000E00020704721B1826842F4806282
:1032A000826003E0826822F480628260704721B10C
:1032B000826842F00202826003E0826822F0020229
:1032C0008260704710B50A4600210023416821F44E
:1032D0006041531E41EA4331416010BD21B1426853
:1032E00042F40062426003E0426822F400624260FD
:1032F00070470146C86C80B270476C48001D00687A
:10330000704721B1826842F48072826003E0826873
:1033100022F480728260704721B1826842F40072A8
:10332000826003E0826822F400728260704738B1E4
:103330005E49096841F400515E4AC2F8041306E090
:103340005A49096821F400515A4AC2F804137047D7
:10335000F0B504461546002000220026092911DD9B
:10336000E068A1F10A0707EB470C072707FA0CF200
:103370009043A1F10A0707EB470703FA07F210434E
:10338000E0600CE0206901EB410C072707FA0CF222
:10339000904301EB410703FA07F210432061A06B51
:1033A000C0F30156EF1C06F1010CA7EB0C0707EB6D
:1033B000870C1F2707FA0CF29043EF1C06F1010C53
:1033C000A7EB0C0707EB870701FA07F21043A0638E
:1033D000F0BD10B50A4600210023816B21F4401195
:1033E000531E41EA0351816310BD08B500230093C9
:1033F0000090009B0B440093009B1A6008BD0A4696
:103400000021816821F470211143816070470A46D0
:103410000021816821F44011114381607047816867
:1034200041F4800181607047014600208A6802F4FF
:1034300080020AB1012000E00020704721B14268FB
:1034400042F48062426003E0426822F4806242609B
:10345000704721B1426842F48052426003E0426802
:1034600022F480524260704708B502460020009066
:10347000009201F12800009B184400900098006819
:1034800080B208BD10B50B460021D9B2012404FA60
:1034900001F11AB144680C43446002E044688C4373
:1034A000446010BDFFFEFFFCFDF7FFC00423014098
:1034B000E030FCFF00200140FFFD3FFF02460020FE
:1034C00013680B400BB1012000E000207047CA4395
:1034D0000260704770B502460020002300240B12E2
:1034E000556801268E4005EA060415681D4015B191
:1034F0000CB1012000E0002070BD00220A12D3436D
:103500000360704710B50446FE48844208D101218B
:103510000846FFF7F6FA00210120FFF7F2FA9DE0D6
:10352000B4F1804F08D101210846FFF7D9FA0021F4
:103530000120FFF7D5FA91E0F348844208D1012138
:103540000220FFF7CDFA00210220FFF7C9FA85E03B
:10355000EE48844208D101210420FFF7C1FA00217E
:103560000420FFF7BDFA79E0E948844208D101213F
:103570000820FFF7B5FA00210820FFF7B1FA6DE047
:10358000E448844208D101211020FFF7A9FA002164
:103590001020FFF7A5FA61E0DF48844208D101213D
:1035A0002020FFF79DFA00212020FFF799FA55E02F
:1035B000DA48844208D101210220FFF7A2FA002153
:1035C0000220FFF79EFA49E0D548844209D1012143
:1035D0000804FFF796FA00214FF48030FFF791FAC4
:1035E0003CE0D048844209D101214804FFF789FA20
:1035F00000214FF40030FFF784FA2FE0CA488442DC
:1036000009D101218804FFF77CFA00214FF48020C2
:10361000FFF777FA22E0C548844208D10121402013
:10362000FFF75EFA00214020FFF75AFA16E0C04883
:10363000844208D101218020FFF752FA0021802026
:10364000FFF74EFA0AE0BB48844207D101218015FA
:10365000FFF746FA0021A015FFF742FA10BD00223D
:103660000288A84B98420ED0AC4B98420BD0B0F1D8
:10367000804F08D0A44B984205D0A44B984202D06A
:10368000A34B984204D14FF68F731A404B881A43CC
:10369000A04B984207D0A04B984204D04FF6FF436E
:1036A0001A400B891A4302804B68C3620B8803855A
:1036B000944B984202D0994B984201D18B7A038661
:1036C0000123838270474FF0FF3141600021018068
:1036D00001814180817270470185828270470A466C
:1036E000002101884FF68F73194011430180704704
:1036F00041627047C16270470146486A704701469F
:10370000088D704721B1028842F00202028004E075
:1037100002884FF6FD731A400280704721B102887B
:1037200042F00402028004E002884FF6FB731A4064
:103730000280704721B1028842F08002028004E0DA
:1037400002884FF67F731A400280704702884FF656
:10375000F7731A40028002880A4302807047028889
:103760004FF6FF431A40028002880A4302807047E6
:1037700021B1028842F00102028004E002884FF683
:10378000FE731A400280704770B5002400220023A7
:10379000058C4FF6FE7635400584028C8388048BB9
:1037A0004FF68F752C40B51E2C400D882C43751E8E
:1037B0002A408D892A434D882A43524DA84202D07F
:1037C000564DA84213D14FF6F7752A40CD892A43AA
:1037D0004FF6FB752A408D882A434FF6FF652B4034
:1037E0004FF6FF552B400D8A2B434D8A2B43838088
:1037F00004838D684563028470BD70B50024002287
:103800000023058C4FF6EF7635400584028C8388C3
:10381000048B48F6FF752C404FF6FF452C400D8871
:103820004FF6FF7606EA05252C434FF6DF752A4052
:103830008D8906EA05152A434D8806EA05152A43AF
:10384000304DA84202D0354DA8421DD14FF67F75AC
:103850002A40CD894FF6FF7606EA05152A434FF632
:10386000BF752A408D8806EA05152A434FF6FF35B5
:103870002B404FF2FF752B400D8A06EA85052B433E
:103880004D8A06EA85052B43838004838D68856312
:10389000028470BD70B5002400220023058C4FF611
:1038A000FF6635400584028C8388848B4FF68F75C4
:1038B0002C404FF6FC752C400D882C434FF6FF55DD
:1038C0002A408D894FF6FF7606EA05252A434D8862
:1038D00006EA05252A430B4DA84202D00F4DA84207
:1038E00038D14FF2FF752A40CD894FF6FF7606EAB0
:1038F00005252A434FF6FF352A408D8806EA05251F
:103900002A4319E000000140000400400008004084
:10391000000C004000100040001400400004014072
:1039200000400140004401400048014000180040B0
:10393000001C0040002000404EF6FF752B404DF665
:10394000FF752B400D8A06EA05152B434D8A06EAC2
:1039500005152B43838084838D68C563028470BD05
:1039600070B5002200230024058C4EF6FF7635400A
:103970000584038C8488828B48F6FF752A404FF6B5
:10398000FF452A400D884FF6FF7606EA05252A43B3
:103990004DF6FF752B408D8906EA05352B434D8882
:1039A00006EA05352B43FE4DA84202D0FD4DA84244
:1039B00008D14BF6FF752C400D8A4FF6FF7606EACC
:1039C00085152C43848082838D680564038470BDD3
:1039D000002101804180818081608181C1810182DB
:1039E0004182704770B50346002000241846183005
:1039F00001258D40ACB21D8CA5431D8409B1082959
:103A00000AD100EB610005684FF68F7635400560FE
:103A10000568154305600FE00D1FC5F34E052844EA
:103A2000056848F6FF763540056005684FF6FF7675
:103A300006EA02263543056070BD41637047816325
:103A40007047C1637047016470470A460021018BCB
:103A50004FF68F7319401143018370470A460021C6
:103A6000018B48F6FF7319404FF6FF7303EA0223F8
:103A70001943018370470A460021818B4FF68F73EB
:103A800019401143818370470A460021818B48F613
:103A9000FF7319404FF6FF7303EA02231943818332
:103AA00070470A460021018B4FF6F7731940114306
:103AB000018370470A460021018B4FF2FF731940C2
:103AC0004FF6FF7303EA02231943018370470A4646
:103AD0000021818B4FF6F7731940114381837047A2
:103AE0000A460021818B4FF2FF7319404FF6FF7396
:103AF00003EA02231943818370470A460021018BA0
:103B00004FF6FB7319401143018370470A460021A9
:103B1000018B4FF6FF3319404FF6FF7303EA022380
:103B20001943018370470A460021818B4FF6FB73CE
:103B300019401143818370470A460021818B4FF65B
:103B4000FF3319404FF6FF7303EA022319438183C1
:103B500070470A460021018B4FF67F7319401143CD
:103B6000018370470A460021018BC1F30E014FF615
:103B7000FF7303EA02231943018370470A460021B9
:103B8000818B4FF67F7319401143818370470A463A
:103B90000021818BC1F30E014FF6FF7303EA02236C
:103BA0001943818370470A460021018C4FF6FD734B
:103BB00019401143018470470A460021018C4FF6D9
:103BC000F77319401143018470470A460021018CA4
:103BD0004FF6DF7319404FF6FF7303EA02131943E0
:103BE000018470470A460021018C4FF67F7319400B
:103BF0004FF6FF7303EA02131943018470470A4624
:103C00000021018C4FF6FF5319404FF6FF7303EA72
:103C100002231943018470470A460021018C4FF2A8
:103C2000FF7319404FF6FF7303EA0223194301841F
:103C300070470A460021018C4DF6FF7319404FF67C
:103C4000FF7303EA023319430184704730B5002340
:103C500001248C40A3B2048C9C430484048C02FA9B
:103C600001F5ADB22C43048430BD30B500230424EB
:103C70008C40A3B2048C9C430484048C02FA01F5AA
:103C8000ADB22C43048430BD828B4FF2FF331A4017
:103C90008283828B4FF6FF7303EA01231A438283E8
:103CA0007047F0B50C461546002100220026078C0F
:103CB0004EF6FF7C07EA0C070784818B028C4FF6D7
:103CC000FF7707EA043640F6FF4739404FF6FF77A3
:103CD00007EA052739434FF6FF7707EA03373943E9
:103CE00045F6FF773A4046F480573A438183028491
:103CF000F0BD828B4FF6F3731A408283828B0A43A6
:103D000082837047F0B50C4615460021002200263C
:103D1000078C4FF6FF6C07EA0C070784818B028C37
:103D20004FF6FF7707EA04264FF60C7739404FF637
:103D3000FF7707EA03172F4339434FF2FF573A4003
:103D400046F480773A4381830284F0BD028B4FF2C0
:103D5000FF331A400283028B4FF6FF7303EA0123FD
:103D60001A4302837047F0B50C4615460021002225
:103D70000026078C4FF6EF7C07EA0C070784018BBF
:103D8000028C4FF6FF7707EA041640F6FF473940EA
:103D90004FF6FF7707EA033739434FF6FF7703E023
:103DA000000001400004014007EA052739434FF6AF
:103DB0005F773A4046F010073A4301830284F0BD32
:103DC000028B4FF6F3731A400283028B0A4302837D
:103DD0007047F0B50C46154600210022068C4FF6C0
:103DE000FE773E400684018B028C4FF60C76314004
:103DF0007E1C06EA03162E4331434FF6F576324019
:103E000044F00106324301830284F0BD70B50546DB
:103E10000C46208850B92389A28861882846FFF77C
:103E2000D8FFE1882846FFF7CBFF25E0208804284B
:103E30000AD12389A28861882846FFF794FFE18888
:103E40002846FFF783FF17E0208808280AD1238936
:103E5000A28861882846FFF755FFE1882846FFF7CA
:103E600048FF09E02389A28861882846FFF719FFE7
:103E7000E1882846FFF708FF70BD002101804180DE
:103E8000012181800021C180018170472DE9F0412D
:103E900005460C4600260127608808B9022600E086
:103EA0000026A088012801D1022700E001272088F0
:103EB000A0B92389A28861882846FFF78AFFE18894
:103EC0002846FFF77DFF23893A4631462846FFF70B
:103ED0004AFFE1882846FFF739FF13E02389A288CB
:103EE00061882846FFF73FFFE1882846FFF72EFF4D
:103EF00023893A4631462846FFF76BFFE18828467A
:103F0000FFF75EFFBDE8F0810146486B7047014650
:103F1000886B70470146C86B70470146086C704754
:103F20000A884B881A438B881A43CB881A430B891B
:103F30001A434B891A438B891A43A0F844207047CF
:103F40000021018041808180C18001814181818186
:103F5000704731B1B0F8442042F40042A0F8442048
:103F600005E0B0F84420C2F30E02A0F844207047E8
:103F700021B1828842F00402828004E082884FF6F8
:103F8000FB731A408280704721B1828842F001029F
:103F9000828004E082884FF6FE731A408280704768
:103FA0001AB183890B43838102E083898B43838128
:103FB00070478182704702460020138A0B400BB184
:103FC000012000E000207047CA430282704730B5EC
:103FD0000246002000230024158A05EA0103958982
:103FE00005EA010413B10CB1012000E0002030BD4E
:103FF000CA430282704741EA0203A0F84830704782
:104000001AB183890B43838102E083898B438381C7
:10401000704721B1828842F00802828004E08288E1
:104020004FF6F7731A408280704701894FF6F87295
:104030001140018170470A46002101894FF68F73B4
:10404000194011430181704730B504460D46294699
:104050002046FFF7F0FF208940F00700208130BDA7
:104060002DE9F04104460D4616461F46602D06D147
:104070003B46012231462046FFF775FE05E03B46F0
:10408000012231462046FFF7A4FE29462046FFF7CD
:10409000D2FF208940F007002081BDE8F08130B5D3
:1040A0000C4600210189C9B24FF6FF7505EA0325C8
:1040B000154325432943018130BD2DE9F0410546D3
:1040C0000E4617469846002443463A46314628464F
:1040D000FFF7E5FF2C894FF6F870044044F0070421
:1040E0004FF68F70044044F070042C81BDE8F081DD
:1040F000F0B504460D4616461F463B463246294655
:104100002046FFF7CCFF208940F480402081F0BD9D
:1041100082884FF68F731A40828082880A43828099
:10412000704702894FF6F8731A40028102890A43E8
:104130000281704702894FF67F731A40028102891B
:104140000A4302817047F0B50C4615461E46002111
:10415000002200230189028B038C4FF6F877394047
:1041600021434FF6FC473A4040F201173A434FF6DD
:10417000DD773B404FF6FF7707EA06172F433B43B7
:10418000018102830384F0BD21B1828842F0800264
:10419000828004E082884FF67F731A4082807047E5
:1041A000A0F850107047000010B500F02FFB00F091
:1041B00072FC00F046FB10BD70B504466FF00400C1
:1041C000FEF7AEF8E11704EB5171C1F3C701454AA0
:1041D0001170E11704EB5171CD104FF47A70454323
:1041E0000120414908804FF0E020006940F00200C2
:1041F0004FF0E021086108464561006940F0010088
:10420000086170BD2DE9F047074600264FF0E02019
:10421000D0F814903348007807FB00F800BF00F096
:1042200048FB4FF0E020856911E04FF0E020846901
:10423000AC420CD0AC4202D2281B064403E0A9EBEE
:104240000400284406442546464500D300E0ECE738
:1042500000BF00F073FBBDE8F08770B5044623484B
:104260000078012814D12248007888B91E480088B7
:10427000844206DB1C48008894FBF0F5284602F0D7
:10428000A9F81948008894FBF0F100FB114084B2B2
:104290004FF47A7104FB01F0FFF7B4FF70BD70B505
:1042A000044612480078012814D11148007888B9D2
:1042B0000D480088844206DB0B48008894FBF0F52B
:1042C000284602F087F80848008894FBF0F100FBCC
:1042D000114084B24FF47A7104FB01F0FFF792FFB2
:1042E00070BD0000940E0020960E0020EA0E002003
:1042F000DE0E002070B504460D46A1B29648FEF7CA
:10430000BFFD00BF80219448FEF76AFE0028F9D067
:1043100080219148FEF771FE204670BD704700BFB6
:10432000704710B5044601210846FEF73BFB01210A
:104330001020FEF791FB4FF4C0608849086002200E
:1043400008710320487100208871C8718448FEF705
:104350008BF8072209218248FEF711F907220A216A
:104360007F48FEF70CF97F48046000207D49888073
:10437000C880088188810C2048817748FEF7CDFCF1
:10438000012240F225517448FEF705FE25207649AA
:1043900008700020487088700120C8700846FDF73A
:1043A00072FF01216C48FEF740FD10BD10B50446B8
:1043B00001210820FEF7F6FA01214804FEF73BFB35
:1043C00060206649086002200871032048710020BF
:1043D0008871C8716548FEF747F8072205216348D0
:1043E000FEF7CDF8072206216048FEF7C8F85D48C1
:1043F000046000205B498880C880088188810C2087
:1044000048815B48FEF789FC012240F2255158485B
:10441000FEF7C1FD262054490870002048708870BE
:104420000120C8700846FDF72EFF01215048FEF715
:10443000FCFC10BD70B506460D462C460FE02178F9
:104440003046FEF71DFD641C00BF80213046FEF79C
:10445000C7FD0028F9D080213046FEF7CEFD207838
:104460000028ECD170BD2DE9F04107460C461546F9
:1044700026460FE031783846FEF702FD761C00BF75
:1044800080213846FEF7ACFD0028F9D0802138465F
:10449000FEF7B3FD2800A5F10105EBD1BDE8F081E1
:1044A00010B5044600BF3248008800F040000028E4
:1044B000F9D02F48001D048000BF80212C48FEF752
:1044C0008FFD0028F9D080212948FEF796FD10BD08
:1044D00010B5002440F225511F48FEF797FD012832
:1044E00017D11D48FEF7D0FCC4B222490868411C10
:1044F000204A116020490C5410460068B0F5007F36
:1045000002D301201D49086040F225511248FEF7F0
:10451000B8FD10BD10B5002440F225511448FEF737
:1045200075FD012817D11248FEF7AEFCC4B214493C
:104530000868411C124A116012490C541046006868
:10454000B0F5007F02D301200F49086040F22551E9
:104550000748FEF796FD10BD00100140980E0020A0
:1045600000000240683C0020A00E0020000C024029
:1045700000440040A40E0020783C0020A80E00203B
:10458000AC0E0020783E0020B00E00207CB5002547
:1045900014E06946284601F013FE064666B9F7485E
:1045A00050F8254044B1012C06D0D4E9020100EBBB
:1045B000810060640198A064681CC5B23F2DE8D9F1
:1045C0007CBD002400BF02E0C82001F003FFEC48DE
:1045D00000780028F8D0EB4800686421B0FBF1F0C7
:1045E000E84908600846006828B90020E6490870D4
:1045F000FF2001F027FE00BF01F0C4FF0446E3489E
:104600000068E34908600020E0490860204601F0A6
:10461000BDFFDF480068DB490968B0FBF1F0C0F17D
:104620006400D949087002F016F8FFF7AFFF642064
:1046300001F0D0FEE0E700B587B003200021802222
:10464000D44BCDE90132CDE903104FF6FE703E2385
:10465000D14A0090AFF2950001F0CBFB06AACFA1A2
:104660003E2001F02FFD07B000BD002400BF00BFB9
:1046700001F088FF0446C5480068401CC349086033
:10468000204601F083FF01F0E5FFF1E700B587B0B8
:1046900003200021C022C54BCDE90132CDE9031032
:1046A0004FF6FF703F23C24A0090AFF2410001F085
:1046B000A0FB06AABFA13F2001F004FD07B000BD8A
:1046C00004E0002200F8012B4A1E91B20029F8D123
:1046D000704770B54FF4C871BA48FFF7F1FF002377
:1046E0000FE0581C85B203EB8300B64901EB800450
:1046F00005EB850001EB8006002020706660581CE9
:1047000083B2132BEDD303EB8300AE4901EB80049E
:104710000020207060600846AB49086070BD70B52D
:104720004FF4E761A948FFF7CBFF4FF4807193483E
:10473000FFF7C6FF002413E0601CC5B2C4EBC40041
:1047400000EB4000A14901EB8003C5EBC50000EB85
:10475000400001EB80065E619DA0D864601CC4B27D
:10476000152CE9D3C4EBC40000EB4000974901EBE2
:1047700080030020586196A0D86400209549086005
:1047800092489549086070BD0021944A117000203C
:1047900004E00021924A1154411CC8B20828F8D301
:1047A0000021904A1170904A1170904A1160904A0D
:1047B0001160704700208F4908608F4908708F4949
:1047C00008708F4908708F4908708F4908606F49D9
:1047D00008606F4908606B49086069490870704754
:1047E00010B501F033FFFFF7E5FFFFF7CDFFFFF74F
:1047F00096FFFFF76EFF00F0E9FE01F0E0F9FFF72A
:1048000045FFFFF718FF01F022FF10BD7D4800783B
:10481000012808D178480078FF2804D2764800782B
:10482000401C75490870704778496C4A1278885C5A
:104830006B49095C754A515C01EBC0016A4A117011
:10484000704710B500246F480078012830D101F07E
:1048500099FE04466848007820B167480078401EF9
:104860006549087064480078F8B964480078E0B990
:10487000FFF7DAFF41485C49097850F821005B49AD
:104880000860594800785749097888420DD0574840
:104890000068806B401C5549096888635A48006865
:1048A000401C5949086001F08DFE204601F06EFE63
:1048B00010BD10B5002453480078012811D101F033
:1048C00061FE04464C48007840B94C480078FF2807
:1048D00004D24A480078401C48490870204601F03C
:1048E00055FE10BD10B5002401F04CFE04464248B0
:1048F0000078F8B941480078E0B9FFF795FF1F4804
:104900003949097850F8210038490860364800785C
:104910003449097888420DD034480068806B401CC7
:1049200032490968886338480068401C3649086085
:1049300001F041FE204601F029FE10BD10B5002413
:104940003048007801286ED101F01CFE04462B4847
:10495000007880B129480078401E28490870084630
:10496000007848B92448007838B9204601F00EFE96
:10497000FFF7B8FF57E053E04EE049E0484A002017
:10498000DC0E0020D40E0020D00E0020EC0E002003
:10499000D80E0020484500204447002075432F4F83
:1049A000532D49492053746174000000484700208A
:1049B000444A002075432F4F532D49492049646CC8
:1049C0006500000078420020C80E0020484B0020FF
:1049D0003F000000FC0E0020F40E0020E10E00203D
:1049E000E20E0020DF0E0020E00E0020F80E002076
:1049F000F00E0020080F0020DD0E0020DE0E00204B
:104A0000EB0E0020EA0E0020C40E00207E96000867
:104A1000204601F0BBFD06E0204601F0B7FD02E0B4
:104A2000204601F0B3FD10BD10B5EB48007890B9F9
:104A3000FFF7FAFEE9480078E9490870E948E749D4
:104A4000097850F82100E849086008460068E749FD
:104A5000086001F09EFD10BD10B50024022001F099
:104A6000B9FC01F08FFD04460020E14908602046B2
:104A700001F08CFD642001F0ADFC01F083FD0446E3
:104A8000DB480068DB4908600120DB4908702046EC
:104A900001F07CFD10BD70B5002601F0B3FE01F001
:104AA00071FD0646D5480068401CD4490860304670
:104AB00001F06CFDC8480078012853D1D048007837
:104AC00020B1012804D0022809D103E001250BE020
:104AD000002509E001250120C949087004E00125ED
:104AE0000020C749087000BF00BF05B970BDC548A8
:104AF000046833E001F046FD0646E06A50B3E06A20
:104B0000401EE062E06A28BB94F8300000F03700F5
:104B100040B114F8300F00F0C80020700120607020
:104B2000303C02E0002084F8310094F8300000F0BE
:104B3000080078B93434A078B34909780843B249F9
:104B400008702078B149085C6178084314F834197A
:104B5000AE4A50546469304601F018FD94F83200B2
:104B60003F28C7D100BFC1E740F22310704770470C
:104B700010B590F8342001F10B039B5C90F83540A0
:104B8000A34301F10B04A35423469B5C23B98B7A06
:104B900090F83640A3438B7210BD2DE9F04F0546C7
:104BA0000F4690469946A87A99490E5C05F10B008C
:104BB000805D11F800B00BEBC60000F0FF0A8948D9
:104BC00050F82A4000202034E0602760207C20EA52
:104BD0000800207484F81190207C203C00F008002C
:104BE00068B994F8360088490978084386490870FE
:104BF0008648805D94F835100843844988552946D5
:104C00002046FFF7B5FF5046BDE8F08F10B5774A54
:104C10001268D061754A126892F8343000F10B02C4
:104C2000D25C724B1B6893F835301A436F4B1B688C
:104C300093F8344000F10B031A55827A6B4B1B68D2
:104C400093F836301A438272684A126892F8341028
:104C50006E4A525C654B1B6893F835309A436B4B38
:104C60005A541A46525C42B9604A126892F8363079
:104C7000654A12789A43644B1A7010BD01460022AF
:104C80008A72002005E0002301F10B021354421C3C
:104C9000D0B20828F7D3704705E011F8013B00F8BF
:104CA000013B531E9AB2002AF7D1704701460020FB
:104CB00002E0491C421CD0B20A78002AF9D17047A0
:104CC0002DE9F84F05460F4690469946DDE90AABB7
:104CD0000020009001F056FC00904E480468002C23
:104CE00075D0183454F8040C4A490860009801F053
:104CF0004DFC44F8187CA576002020766076606133
:104D000044F814BC44F80CAC44F8108C0C9824F80B
:104D1000080C24F8069C0020E077E810207705F0C6
:104D20000700E076217F01208840A077E17E012006
:104D30008840607700206060E060A0602062A06230
:104D40006062E0622063AFF278306063183C002656
:104D500006E0002104F1500040F82610701CC6B295
:104D6000002EF6D0204601F04CFD204601F070FCEC
:104D700001F008FC00901B4840F8254021480068DD
:104D800060610020A0611F48006810B11D480068E4
:104D900084611C4804603434A0781B4909780843B6
:104DA0001949087020781949085C6178084314F89B
:104DB0003419164A505418480078401C1649087097
:104DC000009801F0E3FB0020BDE8F88FFFE70098B2
:104DD00001F0DCFB4220F7E7EA0E0020E00E0020A5
:104DE000DF0E0020484A0020F80E0020F00E0020C0
:104DF000EC0E0020D40E0020DC0E0020080F002056
:104E0000000F0020FC0E0020E10E0020E20E00202A
:104E10007E960008F40E0020EB0E00202DE9F05FD6
:104E200004460F4691461E464FF0000B2078052899
:104E300004D0012030700020BDE8F09F09F0800A06
:104E4000BAF1000F04D029F080094FF0010801E009
:104E50004FF000080020307001F094FB8346B9F158
:104E6000000F2CD0B9F1010F3BD0B9F1020F03D0E4
:104E7000B9F1030F46D111E0208900EA0705BD42D0
:104E800006D1B8F1010F05D12089A843208101E0A6
:104E900070203070584601F079FB3AE0208900EA32
:104EA000070535B1B8F1010F05D12089A84320814C
:104EB00001E070203070584601F068FB29E020893D
:104EC00027EA0005BD4206D1B8F1010F05D12089BE
:104ED0002843208101E070203070584601F056FBD5
:104EE00017E0208927EA000535B1B8F1010F05D197
:104EF00020892843208101E070203070584601F05D
:104F000045FB06E0584601F041FB00256F2030705C
:104F100000BF00BF28468FE72DE9F04106460D4649
:104F20000027FA48007820B1102028700020BDE842
:104F3000F08101F027FB0746F548046884B100685A
:104F40004068F349086005202070268100206060D9
:104F5000F0A0E060384601F019FB0020287004E062
:104F6000384601F013FB722028702046DFE730B589
:104F700001464A6808682AB9CC68606028B10025F3
:104F8000456002E0106000B142608B6800255D6200
:104F900030BDF0B506460F46B46800202834606086
:104FA0002780207A00F0DF00207200206072207AD3
:104FB000283C88B93434A078D74909780843D649C1
:104FC00008702078D549085C6178084314F83419D2
:104FD000D24A5054012500E000253046FFF7C7FFB4
:104FE0002846F0BD2DE9F0470446894615464FF0A6
:104FF000000AC648007820B10F2028702046BDE87E
:10500000F0872078052803D0012028702046F6E795
:1050100001F0B8FA8246606808B1012700E0002775
:10502000B9F1000F03D0B9F1010F3CD119E08FB9EC
:10503000B8A0E06000202070B548006860600020E3
:105040002081B3480460504601F0A0FA0020287087
:10505000002605E0504601F099FA492028702646BE
:1050600028E0D4F8048005E000214046FFF791FFD6
:10507000D8F80080B8F1000FF6D1A6A0E0600020BB
:105080002070A3480068606000202081A048046070
:10509000504601F07BFA012F01D1FFF723FC0020DD
:1050A0002870002606E0504601F070FA07202870AC
:1050B000264600BF00BF3046A1E72DE9F041054676
:1050C0000E46144600279148007820B11120207028
:1050D0000020BDE8F08101F055FA07462878052840
:1050E00006D0384601F052FA012020700020F0E787
:1050F000E86830603068FFF7D9FD8046384601F037
:1051000045FA002020704046E3E72DE9F0410546CE
:105110000E46144600277D48007818B112202070F2
:10512000BDE8F08101F02EFA07462878052805D061
:10513000384601F02BFA01202070F1E7EE60384686
:1051400001F024FA0020207000BFE9E7F0B5144612
:10515000059E734F3F6897F8307047F02007DFF8DF
:10516000C0C1DCF800C08CF830700027DFF8B0C197
:10517000DCF800C08CF83170694F3F68FE62684F00
:105180003F6879620C828B74654F3F688F60476817
:105190000F6000274F60C860456805B169604160D5
:1051A0005F4F3F6897F834205C4FBF5CDFF870C1F9
:1051B000DCF800C09CF835C027EA0C07DFF85CC1BA
:1051C0000CF802706746BF5C5FB9554F3F6897F8AF
:1051D00036C0514F3F7827EA0C07DFF83CC18CF806
:1051E0000070F0BD2DE9F04F89B005460F4691469D
:1051F0009A46129E002002904448007828B102206E
:105200003070002009B0BDE8F08F4648007818B132
:105210000D2030700020F5E72878052803D0012004
:1052200030700020EEE709F0800BBBF1000F04D0D6
:1052300009F07F094FF0010801E04FF0000801F08C
:10524000A1F90290B9F1000F4AD0B9F1010F78D05D
:10525000B9F1020F03D0B9F1030F71D120E0288911
:1052600000EA0704BC420FD1B8F1010F02D128892E
:10527000A04328812A4800680485029801F086F935
:10528000002030702046BDE74B463A4604A9284628
:10529000CDF800A0FFF75AFF029801F077F978E007
:1052A000288900EA07047CB1B8F1010F02D12889EE
:1052B000A04328811A4800680485029801F066F925
:1052C0000020307020469DE74B463A4604A9284608
:1052D000CDF800A0FFF73AFF029801F057F958E027
:1052E000288927EA0004BC421ED1B8F1010F02D17F
:1052F0002889204328810A4800680485029801F023
:1053000045F90020307020467CE71AE0DD0E0020D1
:10531000CC0E00203F000000E10E0020E20E002035
:10532000F00E0020DE0E00204B463A4604A9284627
:10533000CDF800A0FFF70AFF029801F027F928E056
:105340001FE0288927EA00047CB1B8F1010F02D1DF
:10535000288920432881B14800680485029801F01B
:1053600015F90020307020464CE74B463A4604A918
:105370002846CDF800A0FFF7E9FE029801F006F9F3
:1053800007E0029801F002F900246F2030702046F7
:1053900038E700BFFFF7A6FA01F0F4F802909F4843
:1053A000006890F8310020B39C48006890F8310004
:1053B000039000209949096881F8310004A8FFF79B
:1053C000D6FD00209549096881F83000029801F067
:1053D000DDF800240398012805D0022802D10E2010
:1053E000307003E000BF0A20307000BF00BF2046CD
:1053F00008E78A480068048DB8F1010F1ED1B9F1A1
:10540000000F0ED0B9F1010F0CD0B9F1020F03D08B
:10541000B9F1030F0AD100E000BF2889A043288119
:105420000BE000BF28892043288106E0029801F0A4
:10543000ADF86F2030700020E4E600BF029801F064
:10544000A5F8002030702046DCE670B5002501F09C
:1054500099F8054671480068048D284601F096F8D1
:10546000204670BD2DE9FC5F0446894692461E46E3
:10547000002000902078052804D001203070002002
:10548000BDE8FC9F01F07EF80090BAF1000F03D058
:10549000BAF1010F0AD104E0208920EA0900208135
:1054A0000BE0208940EA0900208106E0009801F025
:1054B0006DF8712030700020E2E700BF4FF0000B64
:1054C000656855E0A87C40B3012838D0022802D096
:1054D000032844D111E02089298A00EA0107288A9B
:1054E000B84209D139462846FFF753FD8046B8F146
:1054F000010F01D14FF0010B38E02089298A00EA21
:1055000001074FB139462846FFF743FD8046B8F101
:10551000010F01D14FF0010B28E0288A218920EAF0
:105520000107288AB84209D139462846FFF731FDDC
:105530008046B8F1010F01D14FF0010B16E0288A27
:10554000218920EA01074FB139462846FFF721FD9E
:105550008046B8F1010F01D14FF0010B06E0009831
:1055600001F014F86F203070002089E700BF2D682B
:10557000002DA7D1009801F009F8BBF1010F01D16E
:10558000FFF7B0F900F0FEFF00902089019000982D
:1055900000F0FCFF00203070019871E72DE9F04128
:1055A00004460D4600272078052804D001202870E5
:1055B0000020BDE8F08100F0E5FF07462689384667
:1055C00000F0E4FF002028703046F2E72DE9F041BA
:1055D0004FF4A0711248FFF773F800250EE0681C25
:1055E00086B20F4800EB051400EB06170020207070
:1055F0006760AFF2E020E060681C85B2132DEED347
:10560000074800EB0514002020706060AFF2FC201A
:10561000E060034803490860BDE8F081F00E002017
:1056200008440020CC0E00202DE9F04106460D462E
:105630004FF000083078022804D0012028700020A4
:10564000BDE8F08100F09EFF80467468E08A78B182
:105650002169081D20610F68E08A401EE082A16870
:105660002069884201D1606820610020287002E032
:105670001F2028700027404600F088FF3846DFE7EB
:105680002DE9F04106460F464FF00008F748007834
:1056900010B10020BDE8F08100F074FF8046F448AE
:1056A0000568006820B1F24800684068F049086069
:1056B000404600F06BFF3DB300F064FF8046ED48CC
:1056C0000468C4B100680068EA490860404600F018
:1056D0005DFF666006EB8700A060E6602661A7823A
:1056E0000020E08202202870002028816C6028467B
:1056F000FFF7C4FA08E0DE4800686860DC4805602F
:10570000404600F043FF00252846C3E72DE9F04757
:105710000446894615464FF0000A2078022804D036
:10572000012028702046BDE8F087D048007818B1E5
:105730000F2028702046F6E700F024FF8246A07A6A
:1057400010B14FF0010801E04FF00008B9F1000F6F
:1057500003D0B9F1010F45D11FE0B8F1000F15D109
:105760006668C44800683060C24806600020207047
:10577000BF480068606000202081BD48046050463A
:1057800000F004FF00202870002705E0504600F0DC
:10579000FDFE4920287027462BE005E00023042267
:1057A00019462046FFF7F9F9A07A0028F6D1666875
:1057B000B04800683060AF48066000202070AC48F8
:1057C0000068606000202081A9480460504600F015
:1057D000DDFEB8F1010F01D1FFF784F80020287039
:1057E000002706E0504600F0D1FE0720287027462B
:1057F00000BF00BF384696E770B50546002600F0AA
:10580000C1FE06466C686068E06060682061002048
:10581000E082304600F0BAFE002070BD2DE9F0476E
:105820000746884615464FF000093878022804D00C
:10583000012028700020BDE8F0878C48007818B15E
:10584000022028700020F6E78B48007818B10D2060
:1058500028700020EFE700F095FE81467C68E08A22
:1058600098B12169081D20610E68E08A401EE0821F
:10587000A1682069884201D160682061484600F033
:1058800085FE002028703046D5E77C48006890F8F7
:10589000300040F004007949096881F830000020A8
:1058A0007649096881F8310074480068C0F82C8096
:1058B0003846FFF7ABF9484600F068FEFFF712F8EC
:1058C00000F060FE81466D48006890F8310020B11C
:1058D00001280DD002280AD105E068480068066A50
:1058E000002028700DE000260E20287009E000BF7F
:1058F000394662480068FFF73BF900260A20287005
:1059000000BF00BF00205D49096881F830005B4995
:10591000096881F8310059490968C861574909681F
:105920000862484600F032FE304684E72DE9F04137
:1059300004460F4615464FF000082078022804D090
:10594000012028700020BDE8F08100F01BFE804699
:10595000A07A20B300267FB1012F0CD107E00223EB
:10596000042200212046FFF718F9701CC6B2A07A65
:105970000028F4D109E000BF0223042200212046C0
:10598000FFF70BF9701CC6B200BF00BF404600F025
:10599000FDFDFEF7A7FF0E2028703046D3E74046F6
:1059A00000F0F4FD0020287000BFCCE72DE9F041A5
:1059B00005460E4600272878022802D00120BDE8BF
:1059C000F08100F0DFFD0746A87A60B100230422D1
:1059D00031462846FFF7E1F8384600F0D7FDFEF7DC
:1059E00081FF0020EBE76C68E08AA18A884204DB33
:1059F000384600F0CBFD1E20E1E7E168081DE060BD
:105A00000E60E08A401CE082D4E90210884201D195
:105A10006068E060384600F0B9FD0020CFE72DE96E
:105A2000F04105460E4600272878022802D00120C2
:105A3000BDE8F08100F0A6FD0746A87A60B100231A
:105A4000042231462846FFF7A8F8384600F09EFDAC
:105A5000FEF748FF0020EBE76C68E08AA18A8842E5
:105A60000EDB384600F092FD1E20E1E7DD0E00203F
:105A7000C80E0020040F0020DE0E0020F00E0020D3
:105A800061682069884201D1A06820612069001FF7
:105A9000206120690660E08A401CE082384600F000
:105AA00075FD0020C4E72DE9F04105460F46164676
:105AB0004FF000082878022802D00120BDE8F081CC
:105AC00000F060FD8046A87AE8B106F0010050B110
:105AD00005E00023042239462846FFF75EF8A87A3D
